:020000040800F2
:10300000804800205D310008554800083D40000818
:1030100051480008153500089B62000800000000B8
:1030200000000000000000000000000069510008DE
:10303000CD3B000800000000894B0008F156000855
:10304000773100087731000877310008A14E000879
:1030500077310008773100087731000877310008B0
:1030600077310008773100087731000877310008A0
:103070007731000877310008773100087731000890
:103080007731000877310008773100087731000880
:10309000773100087731000877310008B93C000823
:1030A0007731000877310008773100087731000860
:1030B000D1570008773100087731000877310008D0
:1030C0007731000877310008773100087731000840
:1030D000773100080D5D000877310008773100086E
:1030E0007731000877310008773100087731000820
:1030F0007731000877310008773100087731000810
:1031000077310008773100087731000877310008FF
:1031100077310008773100087731000877310008EF
:1031200077310008773100087731000877310008DF
:10313000DFF80CD000F0ECF800480047D965000833
:10314000804800204FF0010080F3138801480249B5
:103150000160FEE70CED00E00400FA050648804738
:1031600006480047FEE7FEE7FEE7FEE7FEE7FEE76C
:10317000FEE7FEE7FEE7FEE72157000831310008D1
:1031800038B5D0E90221491E01EB410102EBC10132
:103190004268C1EB011102EB81010268C1EB011130
:1031A00002EB8103D0E9042101EB410102EB810133
:1031B000A1F55271302491FBF4F2154D04FB12116C
:1031C000554303EBC51300931A2902DB114A1A4435
:1031D00000920C2391FBF3F20F4C009D544303FB30
:1031E000121105EBC4140D4B009408E0491E5A5C03
:1031F00040F2A3246243009C04EBC2120092002917
:10320000F4DC0146684600F043F8009838BD000041
:103210003F0C0F008051010067C20300606C000882
:1032200040EA01039B070AD102E008C9121F08C047
:10323000042AFAD203E011F8013B00F8013B521EC8
:10324000F9D27047D2B201E000F8012B491EFBD23F
:1032500070470022F6E710B50446084611460246BC
:103260002046FFF7EFFF204610BD30B50446002092
:10327000034600E05B1C934203D2E05CCD5C401B44
:10328000F8D030BD014900F003B80000500800201C
:1032900030B50246126808463C23B2FBF3F103FB4B
:1032A00011220260B1FBF3F203FB121118244160FA
:1032B000B2FBF4F104FB112282600B1D0722B3FB69
:1032C000F2F402FB143282618A0002F66C3240F2A0
:1032D000B555B2FBF5F10C4644310B46416105FB97
:1032E00014218908C1613B2902D39A0700D0491CE7
:1032F0000022064C0261A35C8B4203D8C91A521CFF
:103300000261F8E7491CC16030BD00006C6C000828
:10331000064C074D06E0E06840F0010394E8070022
:1033200098471034AC42F6D3FFF706FF786C0008DC
:10333000986C000870B58C1810F8015B15F0070345
:1033400001D110F8013B2A1106D110F8012B03E03E
:1033500010F8016B01F8016B5B1EF9D12B0706D445
:10336000002301E001F8013B521EFBD50AE010F8F2
:10337000013BCB1A921C03E013F8015B01F8015BDF
:10338000521EF9D5A142D7D3002070BD08B5012146
:103390004FF4847001F01AFC4FF44060ADF8000067
:1033A00003208DF802001C208DF8030069460B48AD
:1033B00000F098FD4FF48070ADF8000003208DF808
:1033C000020010208DF803006946054800F08AFDD0
:1033D0004FF48071024800F018FE08BD000C014057
:1033E0000020014000B587B00121080301F0EEFB89
:1033F0000121042001F0EAFBE020ADF804001820D0
:103400008DF8070003208DF8060001A9194800F087
:1034100069FD1020ADF804008DF8070001A91548DA
:1034200000F060FD1021134800F0F1FD0020ADF820
:103430000800ADF80C000220ADF80E000120ADF838
:1034400010004002ADF812000020ADF81400ADF8F5
:1034500016000720ADF818004FF48270ADF80A008E
:1034600002A9054801F062FE0121034801F044FE73
:1034700007B000BD000801400030014010B5012038
:1034800001F0C4FB002001F0C1FB10BD0246002189
:103490000149114408887047006C00400022024A2C
:1034A0000244116070470000006C004070B5044693
:1034B0000E46002500BF11E04FF48071094800F06E
:1034C000A6FD304603F038F84FF48071054800F04F
:1034D0009CFD304603F030F8681CC5B2A542EBDB1A
:1034E00070BD00000010014008B50121102001F05E
:1034F0006DFB4FF48070ADF8000003208DF80200E2
:1035000010208DF803006946014800F0EBFC08BD6F
:103510000010014000BFFEE770B5002415E0E1B2E5
:1035200041F0B00001F0B6FF102001F0B3FF002021
:1035300001F0B0FF002504E0002001F0EBFF681C63
:1035400085B2802DF8DB601C84B2082CE7DB70BDEF
:1035500010B54FF48041024800F057FD10BD000047
:10356000002001403EB5044609A103C9CDE901018F
:1035700020788DF8070060788DF808000523009307
:1035800001AB1022A221044800F072FF3EBD0000F2
:103590001A727300000000000058004030B5ADF50D
:1035A000077D0025FFF7B8FF0023009330A30E220C
:1035B0000121022000F047FB7021314802F06AFD32
:1035C00000BF35E000200290002410E003A801199C
:1035D0004CF250322A4802F047FD00B10AE003A83D
:1035E000005D9DF808100844C0B20290641CB4F558
:1035F000047FEBD300BF4CF2503202A9204802F006
:1036000033FD20B171211E4802F044FD13E0012377
:10361000009303AB4FF404720021284602F01AFF16
:10362000142002F089FF7021154802F033FD6D1C53
:10363000B5F5CD7FC6D900BFA5F580709B3808D100
:10364000002300930FA307220421084600F0FBFA91
:1036500007E0002300930DA307220421084600F091
:10366000F2FA4FF4FA6002F067FF0DF5077D30BD06
:10367000494E49542044415441464C41534800006E
:103680000038014053554343454544004641494CA9
:1036900055524500F8B5002532210220FFF706FFFC
:1036A0000D2174A002F050FB0023009375A310229B
:1036B0000021042000F0C7FA00F0BEFB00BF70E05C
:1036C000002658E0681CC0B200F0C2FB0446002C83
:1036D00029D015B1012D22D110E013216EA002F0E6
:1036E00033FB0023009371A310220021042000F07B
:1036F000AAFA4FF47A7002F01FFF10E0132170A0B5
:1037000002F022FB0023009372A310220021042068
:1037100000F099FA4FF47A7002F00EFF00BF00BF7C
:10372000701CC6B227E015B1012D22D110E0312165
:103730006DA002F009FB0023009378A31022002162
:10374000042000F080FA4FF47A7002F0F5FE10E0E9
:10375000172177A002F0F8FA002300937AA3102231
:103760000021042000F06FFA4FF47A7002F0E4FEBA
:1037700000BF00BF01E0032EA4DB00BF7CB10C2121
:1037800076A002F0E1FA0023009378A31022002132
:10379000042000F058FA4FF47A7002F0CDFE681C55
:1037A000C5B2022D8CDB002C50D1322001F054F92F
:1037B000044684B1142172A002F0C6FA00230093DB
:1037C00075A310220021042000F03DFA4FF47A7016
:1037D00002F0B2FE0FE0172174A002F0B5FA002348
:1037E000009378A310220021042000F02CFA4FF45B
:1037F0007A7002F0A1FE322001F05AF9044684B139
:10380000162175A002F0A0FA0023009378A31022DD
:103810000021042000F017FA4FF47A7002F08CFEB9
:1038200024E0192177A002F08FFA64210120FFF72C
:103830003DFE002300937AA310220021042000F013
:1038400002FA4FF47A7002F077FE0FE0162162A0C0
:1038500002F07AFA0023009365A3102200210420CD
:1038600000F0F1F94FF47A7002F066FE00F0D8FA39
:10387000F8BD00007A686977656E206365736869D2
:103880000A00000020202020D6B8CEC6B2E2CAD45A
:1038900020202020000000007A686977656E206390
:1038A0006573686931206661696C0A002020D6B8AA
:1038B000CEC631B2C9BCAFCAA7B0DC200000000040
:1038C0007A686977656E206365736869322066611E
:1038D000696C0A002020D6B8CEC632B2C9BCAFCAC5
:1038E000A7B0DC20000000007A686977656E20636D
:1038F000657368693120537563636573732C616EFA
:103900006420436F6E74696E7565207A68697765A7
:103910006E206365736869320A0000002020D6B803
:10392000CEC631B2C9BCAFB3C9B9A62000000000F1
:103930007A686977656E20636573686932205375AC
:1039400063636573730A00002020D6B8CEC632B216
:10395000C9BCAFB3C9B9A620000000007A68697776
:10396000656E206661696C0A000000002020D6B8F0
:10397000CEC6B2C9BCAFCAA7B0DC20200000000090
:103980007A686977656E20636F6D70617265206615
:1039900061696C0A000000002020D6B8CEC6B1C80C
:1039A000BDCFCAA7B0DC2020000000007A6869778C
:1039B000656E20636F6D706172652053756363651A
:1039C00073730A002020D6B8CEC6B1C8BDCFB3C924
:1039D000B9A62020000000007A686977656E205340
:1039E000796E746865736973206661696C0A00009A
:1039F0002020D6B8CEC6BACFB3C9CAA7B0DC202023
:103A0000000000007A686977656E2053796E7468EB
:103A10006573697320537563636573730A000000EF
:103A20002020D6B8CEC6BACFB3C9B3C9B9A6202014
:103A3000000000002DE9FF410020039061A0006814
:103A400001900024002500260027002000905E48F9
:103A500002F01AFCC0B28DF80C0001260BE003A89E
:103A600081194CF25032584802F0FEFA08B1BDE814
:103A7000FF81701C86B2032EF1DB9DF80C001A2822
:103A800007D19DF80D00722803D19DF80E00732810
:103A900000D0ECE79DF80C002844C5B29DF80D005D
:103AA0002844C5B29DF80E002844C5B200260EE099
:103AB00002A881194CF25032434802F0D5FA00B105
:103AC000D5E702A8805D2844C5B2701C86B2022EDC
:103AD000EEDB00260EE001A881194CF250323A4884
:103AE00002F0C2FA00B1C2E701A8805D2844C5B265
:103AF000701C86B2032EEEDB9DF809009DF80810BD
:103B000000EB0120001F87B2002F19DD384603F0BB
:103B100025F804461CB9204602F036FDA7E700262A
:103B20000CE0A1194CF25032274802F09DFA00B186
:103B30009DE7A05D2844C5B2701C86B2BE42F0DB92
:103B40004CF250326946204802F08EFA00B18EE7FE
:103B50009DF80400B2280DD09DF80000854209D0E0
:103B600000231A46032101A801F0E2FB204602F0DF
:103B70000BFD7CE79DF80400012813D0B22818D172
:103B80009DF8050028B92046FFF7ECFCFFF7DAFAAC
:103B900007E09DF80500012803D1FFF7FFFCFFF7C0
:103BA000D1FA07E000231A46194601A801F0C0FB2C
:103BB00000E000BF00BF002F02DD204602F0E4FC61
:103BC00055E70000FFFFFF000038014070472DE976
:103BD000F0438BB004460D4616461F464FF4047062
:103BE000B6FBF0F8B6FBF0F100FB116903AB202245
:103BF0004946404601F048FA601CC2B2CDE90027B0
:103C00000F2202EBC500C3B2E806010E224603A84C
:103C100002F045FB0BB0BDE8F0832DE9FC41044602
:103C20000D4616461F46601CC2B2CDE9002707228A
:103C300002EBC500C3B2E806010E2246304602F090
:103C4000C3FFBDE8FC812DE9F84F04460D4616463A
:103C50001F46A9464FF000082AE017F808A0BAF15D
:103C6000800F17DB08F1010000F0FF084FEA0A2B74
:103C700017F808008344584600F0D0F900904946F0
:103C800020460A9B009AFFF7A2FF09F1020000F00C
:103C9000FF0909E05246494620460A9BFFF7BDFF4F
:103CA00009F1010000F0FF0908F1010000F0FF0830
:103CB000B045D2DBBDE8F88F10B5402000F048F8E1
:103CC00068B1402000F010F805480068401C044925
:103CD000086008460068C1B2024802F0DBF910BD76
:103CE000A00700200038014001490860704700002B
:103CF000140401400EB50121102000F067FF0121DE
:103D0000084600F063FF4020ADF8080003208DF85E
:103D10000A0004208DF80B0002A90C4800F0E2F81C
:103D20000621022000F0C0F84020FFF7DDFF402010
:103D3000009000208DF804000C208DF80500012073
:103D40008DF80600684600F019F80EBD001001401D
:103D5000014600200022074B1B6803EA0102064BC4
:103D6000D3F814340B4202D00AB1012000E0002045
:103D70007047000000040140000001400021264976
:103D80008279002A40D0254AD2F8002403689A4359
:103D9000224BC3F800241A46D2F8042403689A433D
:103DA0000B1D1A60027911440A6803681A430A60FD
:103DB0001A4AD2F8082403689A43184BC3F8082417
:103DC0001A46D2F80C2403689A43134B0C331A603A
:103DD0004279102A10D1114AD2F8082403681A43F4
:103DE0000E4BC3F808241A46D2F80C2403681A4371
:103DF0000A4BC3F80C240DE00749427911440A68C4
:103E000003681A430A6005E0027911440A680368EE
:103E10009A430A607047000000040140000001401E
:103E200010B54FF40041034800F0EFF80A2002F00B
:103E300083FB10BD0014014010B54FF4004103484E
:103E400000F0E5F8C82002F077FB10BD0014014037
:103E500070B5044601220621322000F055FE0546C9
:103E600015B11048405D70BD03220521322000F0DD
:103E70004BFE054615B10B48405DF4E74FF4FA7070
:103E800000F0BEFD054615B10648405DEBE7214652
:103E9000322000F07BFD054615B10248405DE2E7A7
:103EA0000020E0E77E07002030B500228B071C0FC2
:103EB0000F2303FA04F20A4B8C1053F82440944366
:103EC0008D1043F825408C1053F824308C07240FB4
:103ED00000FA04F42343024C8D1044F8253030BD21
:103EE00008000140F0B50022002300240025002630
:103EF000002791F803C00CF00F0291F803C01CF0EA
:103F0000100F03D091F802C04CEA0202B1F800C0D1
:103F10001CF0FF0F31D0066800242BE04FF0010C9D
:103F20000CFA04F5B1F800C00CEA0503AB4220D14D
:103F3000A5004FF00F0C0CFA05F7BE4302FA05FC82
:103F40004CEA060691F803C0BCF1280F06D14FF0E9
:103F5000010C0CFA04FCC0F814C00AE091F803C08C
:103F6000BCF1480F05D14FF0010C0CFA04FCC0F86D
:103F700010C0641C082CD1D30660B1F800C0BCF19D
:103F8000FF0F34DD466800242EE004F1080C4FF0EA
:103F9000010E0EFA0CF5B1F800C00CEA0503AB42B5
:103FA00021D1A5004FF00F0C0CFA05F7BE4302FA21
:103FB00005FC4CEA060691F803C0BCF1280F05D1B8
:103FC00004F1080C0EFA0CFEC0F814E091F803C0DE
:103FD000BCF1480F07D104F1080C4FF0010E0EFAA6
:103FE0000CFEC0F810E0641C082CCED34660F0BD77
:103FF0000146886880B270470246002093680B42F1
:1040000001D0012000E0002070474161704701614C
:1040100070470AB1016100E04161704770B5014627
:10402000C1F30F24CDB2A4F1B006B2B2A5F1A1063E
:10403000B3B25E2606FB0236700170BD00BFFEE71C
:104040001FB50121480500F0A1FD114800F0AAF8B4
:104050000020ADF804004BF6FF70ADF8060000201C
:10406000ADF808004FF48060ADF80A000001ADF82B
:104070000C00084800900121054800F086F86946C8
:10408000034800F0D9F80121014800F031F81FBDC4
:1040900000540040A08601001FB50121880500F0F2
:1040A00075FD114800F07EF80020ADF804004BF6D5
:1040B000FF70ADF806000020ADF808004FF48060F6
:1040C000ADF80A000001ADF80C000848009001218D
:1040D000054800F05AF86946034800F0ADF80121A0
:1040E000014800F005F81FBD00580040A0860100FF
:1040F00021B1028842F48062028004E002884FF617
:10410000FF331A400280704770B504460D4600BF69
:104110000121204600F062F81421204600F092F9B7
:10412000064605F0FE010022204600F096F9142113
:10413000204600F087F910F0020FE9D0044920462C
:1041400000F01DF80121204600F054F870BD000079
:104150000004001070B50546002400220023002052
:10416000AA8A2B8B1B0442EA030626F07F4404EA4A
:1041700001068E4201D1012000E0002070BD002226
:1041800021F07F42D3438382704721B1028842F0FD
:104190000102028004E002884FF6FE731A4002809A
:1041A0007047000010B504460B48844209D1012134
:1041B000480500F0FBFC00214FF4001000F0F6FC75
:1041C00008E00121880500F0F1FC00214FF4800097
:1041D00000F0ECFC10BD00000054004021B102884A
:1041E00042F48072028004E002884FF6FF631A40B6
:1041F0000280704721B1028842F40072028004E01C
:1042000002884FF6FF531A400280704730B50246CD
:1042100000200024002313460C0F21F07F410CB135
:10422000143301E0090C18331D680D4201D0012040
:1042300000E0002030BD00002DE9F04385B00446C9
:104240000D46002600274FF00408DFF8D490A6881A
:104250004FF6C0710E40684600F0E8FCDDF80890AB
:104260003048B9FBF0F087B23E43A68020884FF675
:10427000FE710840208000262B49286888420FD80C
:1042800028684000B9FBF0F01FFA80F8B8F1040F7D
:1042900001DA4FF0040846EA0806781C208429E079
:1042A000E888A0F53F41FF3907D1286800EB4000BE
:1042B000B9FBF0F01FFA80F80AE0286800EBC001B3
:1042C00001EB0010B9FBF0F01FFA80F848F48048C9
:1042D000C8F30B00002801D148F0010848F4004061
:1042E00006434FF4967078434FF47A7190FBF1F0E7
:1042F000401C2084A683208840F00100208026886E
:104300004FF6F5300640A8886989084306432680A1
:10431000A88929890843208105B0BDE8F083000001
:1043200000127A0040420F00A08601002DE9F04102
:1043300005460E4614461F46DDF81880B8F1000FFA
:1043400002D10120BDE8F08100BF4FF400312846C2
:10435000FFF75CFF0028F8D101212846FFF7C8FECF
:1043600001212846FFF73AFF00BF34492846FFF7EE
:10437000F1FE0028F9D006F0FE010022284600F0E8
:104380006CF800BF2E492846FFF7E4FE0028F9D05C
:10439000210A284600F06AF800BF2949891C2846EE
:1043A000FFF7D8FE0028F8D02146284600F05EF836
:1043B00000BF2349891C2846FFF7CCFE0028F8D00F
:1043C00001212846FFF70AFF00BF1C492846FFF7D6
:1043D000C1FE0028F9D001223146284600F03DF800
:1043E00000BF1649491C2846FFF7B4FE0028F8D044
:1043F0001BE0B8F1010F07D100212846FFF778FE36
:1044000001212846FFF7F6FE00BF0C493F31284640
:10441000FFF7A0FE0028F8D0284600F01AF8387000
:104420007F1CA8F101001FFA80F8B8F1000FE0D15D
:1044300001212846FFF75CFE002083E7010003000E
:10444000820007000246002313461A460B441888D0
:1044500070470146088AC0B2704712B141F00101AD
:1044600002E04FF6FE7319400182704701827047E7
:104470002DE9F84F04460D4616461F46DDF8288004
:104480004FF00009CA46A02D01D0A12D02D14FF056
:10449000200A01E04FF0400A96FBFAF00AFB106098
:1044A000AAEB00001FFA80F923E0C8450DDC3B466B
:1044B000324629462046CDF8008000F01BF810B1A6
:1044C0003120BDE8F88F0020FBE73B463246294605
:1044D0002046CDF8009000F00DF808B13120F0E74B
:1044E00006EB0900C6B24F44A8EB09001FFA80F89A
:1044F000D146DAE72DE9F04105460E4614461F463F
:10450000DDF8188001212846FFF768FE00BF264924
:104510002846FFF71FFE0028F9D000223146284622
:10452000FFF79BFF00BF21492846FFF713FE002835
:10453000F9D0210A2846FFF799FF00BF1B49891CC3
:104540002846FFF707FE0028F8D021462846FFF747
:104550008DFF00BF1549891C2846FFF7FBFD002889
:10456000F8D00CE039782846FFF780FF7F1C00BFA9
:104570000E49891C2846FFF7EDFD0028F8D05FEAB8
:104580000800A8F101011FFA81F8EBD101212846AA
:10459000FFF730FE31462846FFF7B6FD0A2001F04E
:1045A000CBFF0020BDE8F08101000300820007007E
:1045B00008B501213C2000F009FBC020ADF8000047
:1045C00003208DF802001C208DF80300694619486D
:1045D000FFF788FC4FF40070ADF8000003208DF861
:1045E000020010208DF8030069461348FFF77AFC9B
:1045F0004FF48070ADF8000003208DF802004820D1
:104600008DF8030069460D48FFF76CFC4FF400700D
:10461000ADF8000003208DF8020010208DF8030093
:1046200069460748FFF75EFC4FF400710448FFF746
:10463000EEFC08BD000C01400010014000080140E4
:104640000014014010B500F095F94FF4807108484E
:10465000FFF7D2FC50B90A2001F06EFF4FF48071D1
:104660000348FFF7C9FC08B9002010BD0F20FCE784
:104670000008014010B545F2555000F029F8062019
:1046800000F01AF840F20D3000F01CF800F00CF8C1
:1046900000F002F810BD00004CF6CC400149086063
:1046A00070470000003000404AF6AA200149086027
:1046B000704700000030004001494860704700002A
:1046C0000030004001498860704700000030004021
:1046D00001490860704700000030004010B54FF4F9
:1046E00000512448FFF793FC4FF480512148FFF715
:1046F0008EFC4FF400611F48FFF789FC4FF40071F6
:104700001C48FFF782FC4FF480511A48FFF77FFCEA
:104710004FF480511748FFF778FC4FF4805115484B
:10472000FFF775FCAF2000F0B5FE402000F0B2FEB0
:10473000A02000F0AFFEA62000F0ACFEA42000F008
:10474000A9FEA22000F0A6FEC82000F0A3FE2F20A4
:1047500000F0A0FE262000F09DFEF82000F09AFE5A
:10476000002000F097FE812000F094FE1A2000F057
:1047700091FE10BD0020014070B500230FE00A2417
:1047800090FBF4F504FB15043034E5B28E185C1C84
:10479000341B25700A2490FBF4F05C1CE3B29342B6
:1047A000EDDB70BD08B50121080200F00FFA3C20D6
:1047B000ADF8000003208DF8020048208DF80300BA
:1047C00069460A48FFF78EFB0121102000F0FEF930
:1047D0008020ADF8000003208DF8020004208DF841
:1047E000030069460248FFF77DFB08BD0020014039
:1047F0000010014008B501214FF4907000F0E6F977
:104800004FF4FC40ADF8000003208DF802001020AA
:104810008DF8030069460C48FFF764FB44F2FF0083
:10482000ADF8000003208DF8020010208DF8030081
:1048300069460648FFF756FB00F092F84FF48041B6
:104840000248FFF7E4FB08BD0020014000140140CE
:1048500000BFFEE7704708B54FF440514FF00060CD
:1048600000F074F84FF4C06000F066F825208DF871
:10487000000001208DF801008DF802008DF8030082
:10488000684600F01FF81C208DF8000000208DF80D
:1048900001008DF8020001208DF80300684600F049
:1048A00011F817208DF8000001208DF8010000207C
:1048B0008DF8020001208DF80300684600F002F830
:1048C00008BD000070B5002100230F22C4780CB38E
:1048D000164C246804F4E064C4F5E064210AC1F1D4
:1048E0000403CA40447804FA03F184781440214355
:1048F00009010F4C0678A155047804F01F05012426
:10490000AC4005786D114FF0E02606EB8505C5F843
:10491000004109E0047804F01F040125A540054C7E
:104920000678761144F8265070BD00000CED00E0CA
:1049300000E400E080E100E002490143024A116026
:10494000704700000000FA050CED00E0024A0A4042
:104950000243024B1A60704780FFFF1F08ED00E022
:1049600010B54FF480410248FFF751FB10BD000025
:104970000020014010B54FF400710348FFF747FBDA
:10498000052001F0D9FD10BD001001402DE9FC41CA
:1049900004460D46002702208DF80400012D03D1A6
:1049A00001208DF8050002E002208DF8050001AA23
:1049B0000221012001F090FA0F4804800EE06846C1
:1049C00001F0D6F90646701C08D09DF800000728B3
:1049D00002D10A48077800E01E2703E00648008855
:1049E0000028ECDC00BF04480088002800DC192700
:1049F0003846BDE8FC8100006A070020000800205E
:104A00007CB504460026012001901148048012E084
:104A100001AA0121084601F05FFA684601F0A8F9F1
:104A20000546681C07D09DF80000072803D10948F7
:104A3000067806B903E0064800880028E8DC00BFD5
:104A400003480088002800DC192630467CBD0000A1
:104A50006A070020000800207CB5044600260320D9
:104A6000019001AA0121084601F036FA0E4804809F
:104A70000EE0684601F07CF90546681C08D09DF8F8
:104A80000000072802D10948067800E01E2603E04E
:104A9000054800880028ECDC00BF03480088002897
:104AA00000DC192630467CBD6A0700200008002083
:104AB0007CB5044600260520019001AA0121084684
:104AC00001F00AFA0E4804800EE0684601F050F941
:104AD0000546681C08D09DF80000072802D1094847
:104AE000067800E01E2603E0054800880028ECDC7C
:104AF00000BF03480088002800DC192630467CBD32
:104B00006A070020000800202DE9FC4104460D46FC
:104B100016464FF000080E208DF804008DF8055061
:104B20008DF8066001AA0321012001F0D5F9114892
:104B3000048010E0684601F01BF90746781C0AD093
:104B40009DF80000072803D10B4890F8008001E091
:104B50004FF01E0803E0074800880028EADC00BF89
:104B600004480088002801DC4FF019084046BDE8E1
:104B7000FC8100006A07002000080020014908624B
:104B80007047000000000E427047000029B1064A3D
:104B9000D2690243044BDA6104E0034AD2698243DA
:104BA000014BDA61704700000010024029B1064A4B
:104BB00012690243044B1A6104E0034A12698243FA
:104BC000014B1A61704700000010024029B1064AEB
:104BD00092690243044B9A6104E0034A926982435A
:104BE000014B9A61704700000010024029B1064A4B
:104BF000D2680243044BDA6004E0034AD26882437D
:104C0000014BDA6070470000001002400149086063
:104C100070470000400442420348406A40F0807000
:104C200001494862704700000010024030B5002181
:104C30000022002300242E4D6D6805F00C0121B1E7
:104C4000042905D0082923D105E02A4D056022E07A
:104C5000284D05601FE0264D6D6805F47012244D47
:104C60006D6805F48033022505EB92421BB9224D95
:104C7000554305600BE01E4D6D6815F4003F03D0F1
:104C80001D4D5543056002E01A4D5543056002E095
:104C9000184D056000BF00BF154D6D6805F0F001AF
:104CA0000909164D6C5C0568E5404560104D6D685E
:104CB00005F4E061090A114D6C5C4568E5408560CA
:104CC0000B4D6D6805F46051C90A0C4D6C5C45686C
:104CD000E540C560064D6D6805F44041890B074D00
:104CE00010356C5CC568B5FBF4F5056130BD00009E
:104CF0000010024000127A0000093D00A5070020C4
:104D000010B501460022002300204A11012A02D1D9
:104D1000094C236806E0022A02D1074C236A01E00D
:104D2000054C636A01F01F02012494401C4201D02B
:104D3000012000E0002010BD0010024000210B4ABD
:104D400011700A4A203A82F82010012802D0042863
:104D500008D103E00121054A117004E00521034A4E
:104D6000117000E000BF00BF70470000201002403B
:104D700001490860704700003C0442420249096A48
:104D80000143014A116270470010024008B54FF418
:104D9000E060FFF7D1FD03208DF8000000208DF8C2
:104DA00001008DF8020001208DF803006846FFF72E
:104DB00089FD08BD04490988C24392B21140034AE3
:104DC000A2F80418704700000428004000200040AA
:104DD00010B501214FF0C050FFF7D8FE0120FFF7BA
:104DE000CDFEFEF74BFB0120FFF7A8FF00BF4120DF
:104DF000FFF786FF0028FAD04FF48070FFF7BEFF60
:104E00000120FFF7B5FF00F0EFF800F0E3F8012113
:104E1000084600F055F800F0DDF847F6FF7000F0A6
:104E2000C7F800F0D7F810BD0348008840F0100024
:104E30000249A1F8040870470428004000200040FF
:104E4000044800884FF6EF7108400349A1F80408B0
:104E50007047000004280040002000400021044862
:104E600001880448B0F8180841EA00407047000083
:104E70001C2800400020004001460020064A1288FD
:104E80000A40D0B2054AB2F800280A4202D008B15E
:104E9000012000E00020704704280040002000406E
:104EA00010B50120FFF7E8FF38B10120FFF782FFBE
:104EB0000248007808B100F04FFE10BD6E070020D8
:104EC00031B1084A12880243074BA3F8002807E0D3
:104ED000044A1288C3439BB21A40034BA3F800282C
:104EE00070470000002800400020004010B504205A
:104EF000FEF7CCFAA0F52541A53909D0FFF768FFE8
:104F000000F07EFE4AF2A5510420FEF7C7FA38E011
:104F100000F06AF801210846FFF7D2FF00F05AF8C6
:104F200000F06AFE04460146174800F005FE1648E8
:104F3000406940F60201884221DC1348406940F292
:104F4000DA7188421BDB104800690C2817DC0E4818
:104F50000069012813DB0C48C0681F280FDC0A48D1
:104F6000C06801280BDB08488068172807DC064862
:104F700040683B2803DC044800683B2801DD00F062
:104F80003FFEFFF749FE10BDD407002000B50246E2
:104F9000FFF74AFF100C044908800449A1F81C28B7
:104FA000FFF74EFF00BD0000182800400020004021
:104FB00000B50246FFF738FFC2F3034003490880FB
:104FC0000349A1F80C28FFF73BFF00BD082800406B
:104FD0000020004000BF0348008810F0200FFAD0E6
:104FE0007047000004280040074800884FF6F7711A
:104FF00008400649A1F8040800BF0348008810F0E3
:10500000080FFAD07047000004280040002000403C
:105010002DE9F04104460D4616461F464FF00008A4
:1050200010211848FEF7F1FFD22001F0F3FDC4F380
:10503000871001F0EFFDA10041EA1521C8B201F08F
:10504000E9FDE8B201F0E6FD002001F0E3FD0020FB
:1050500001F0E0FD002001F0DDFD002001F0DAFDAF
:1050600000BF06E0002001F0D5FD07F8080008F1B8
:105070000108B045F6D310210248FEF7C8FFBDE88D
:10508000F0810000000801402DE9F04104460D4682
:1050900017461E46C5F50470B84206D333463A4655
:1050A00029462046FFF7B4FF24E0C5F504723346D5
:1050B00029462046FFF7ACFFC5F504700644641C82
:1050C000C5F504703F1A0BE033464FF4047200211B
:1050D0002046FFF79DFF06F50476641CA7F50477CC
:1050E000B7F5047FF0D22FB133463A46002120466F
:1050F000FFF78EFFBDE8F08121B1028842F0400247
:10510000028004E002884FF6BF731A4002807047A5
:105110000246002013890B4201D0012000E000204C
:1051200070470146888970478181704710B5002219
:10513000028802F441520B884C8823438C88234315
:10514000CC8823430C8923434C8923438C892343F4
:10515000CC8923431A430280838B4FF2FF74234090
:1051600083830B8A038210BD7047000010B50020B6
:105170006B4908806B4908706B48FEF739FFA0F552
:105180007F41FF3972D00A2001F0D6F96648FEF758
:105190002FFFA0F57F41FF39F4D004216248FEF7CC
:1051A0002BFFE8B901205F49087000205C490880A6
:1051B00000BF04215C48FEF71FFF18B9584800885B
:1051C0009628F6DD56480088962804DD00205449CC
:1051D00008800A2010BD0020514908800520F9E709
:1051E00008215148FEF708FFE8B901204D49087031
:1051F00000204B49088000BF08214B48FEF7FCFE09
:1052000018B9474800889628F6DD45480088962852
:1052100004DD0020424908800620DBE700204049E9
:1052200008800120D6E710213F48FEF7E5FEF0B9DF
:1052300001203C49087000203949088000BF102136
:105240003948FEF7D9FE18B9354800889628F6DDAA
:1052500033480088962804DD002031490880082062
:10526000B8E700202E4908800320B3E722E0202180
:105270002D48FEF7C1FEE8B901202A490870002038
:105280002749088000BF20212748FEF7B5FE18B93E
:10529000234800889628F6DD21480088962804DDFA
:1052A00000201F490880092094E700201C4908803D
:1052B00004208FE71D48FEF79BFEA0F57F41FF39D4
:1052C0002CD00A2001F038F91848FEF791FEA0F51D
:1052D0007F41FF3922D080211448FEF78DFEE8B9C6
:1052E00001201049087000200D49088000BF80216E
:1052F0000E48FEF781FE18B9094800889628F6DDA9
:1053000007480088962804DD00200549088007200A
:1053100060E700200249088002205BE7FF2059E790
:1053200066070020680700200020014000100140AF
:105330002DE9F84304460D4616461F4654A0006862
:1053400000904FF00008C14606F10B0001F006FC8A
:105350008146B9F1000F04D1484601F015F9BDE8C6
:10536000F883002106F10A0009F80010884611E0D0
:105370001DF8080009F8080006F10A0019F80000F5
:1053800019F808100844C1B206F10A0009F8001023
:1053900008F10108B8F1030FEAD3B01D000A89F83B
:1053A000030006F10A0019F8000099F803100844F8
:1053B000C1B206F10A0009F80010B01D89F8040016
:1053C000001D19F8000099F804100844C1B206F154
:1053D0000A0009F800104FF0000815E014F8081052
:1053E00008F1050009F8001006F10A0019F800108C
:1053F00008F1050019F800000844C1B206F10A00DE
:1054000009F8001008F10108B8F1030FE6D3280AE3
:1054100089F8080006F10A0019F8000099F8081048
:105420000844C1B206F10A0009F8001089F80950D1
:1054300019F8000099F809100844C1B206F10A00F1
:1054400009F800104FF0000815E017F8081008F1EF
:105450000A0009F8001006F10A0019F8001008F116
:105460000A0019F800000844C1B206F10A0009F860
:10547000001008F10108B045E7D306F10B0081B236
:10548000484600F061FC484601F07EF867E70000FE
:105490001A72730070B5044600254FF400611B4872
:1054A000FEF7B3FD4FF480611848FEF7AEFD00BF74
:1054B00015E044FA05F010F0010F07D080202841D4
:1054C00081B201221248FEF7A4FD06E080202841A7
:1054D00081B200220E48FEF79CFD681CC5B2082D63
:1054E000E7DB4FF400510948FEF78FFD4FF40071E0
:1054F0000648FEF78CFD4FF400710448FEF785FD69
:105500004FF400510148FEF782FD70BD00200140BC
:105510000014014070B5044600254FF400611B489B
:10552000FEF775FD4FF480611848FEF76EFD00BF71
:1055300015E044FA05F010F0010F07D08020284153
:1055400081B201221248FEF764FD06E08020284166
:1055500081B200220E48FEF75CFD681CC5B2082D22
:10556000E7DB4FF400510948FEF74FFD4FF400719F
:105570000648FEF74CFD4FF400710448FEF745FD68
:105580004FF400510148FEF742FD70BD002001407C
:105590000014014010B500F001F810BD00200021FA
:1055A0002E4A126842F480322C4B1A6000BF2B4AFC
:1055B000126802F40031401C11B9B0F5A06FF6D1A9
:1055C000264A126812F4003F01D0012100E00021B8
:1055D000012942D1224A126842F01002204B1A607F
:1055E0001A46126822F003021A601A46126842F044
:1055F00002021A60194A5268184B5A601A465268D9
:105600005A601A46526842F480625A601A465268DA
:1056100022F47C125A601A46526842F4E8125A6028
:105620001A46126842F080721A6000BF0B4A126874
:1056300012F0007FFAD0094A526822F00302074BA9
:105640005A601A46526842F002025A6000BF034A8A
:10565000526802F00C02082AF9D17047001002408B
:1056600000200240042808D14FF0E021096941F0F0
:1056700004014FF0E022116107E04FF0E0210969D9
:1056800021F004014FF0E02211617047012808D198
:105690004FF0E021096941F001014FF0E022116172
:1056A0000EE0811C08D14FF0E021096921F00101D1
:1056B0004FF0E022116103E000214FF0E022916100
:1056C000704710B50146002200230020CB10022BAA
:1056D00003D14FF0E024226902E04FF0E024E269B8
:1056E00001248C40144201D0012000E0002010BDB4
:1056F000704740B14FF0E021096941F002014FF0DD
:10570000E022116107E04FF0E021096921F0020178
:105710004FF0E022116170474FF0E021486170477F
:1057200010B51348006840F00100114908600846B0
:105730004068104908400E494860084600680E4914
:1057400008400B4908600846006820F48020086083
:105750000846406820F4FE0048604FF41F0088604F
:10576000FFF718FF4FF000600449086010BD00000B
:10577000001002400000FFF8FFFFF6FE08ED00E019
:105780000EB501210846FFF701FA4FF0804000F006
:1057900063F81B20ADF8040048F69F40ADF8000008
:1057A0000020ADF80600ADF8020069464FF08040D9
:1057B00000F064F90121880700F03CF8012211464D
:1057C000900700F04EF90121880700F039F80EBD6E
:1057D00010B50121880700F033F9F8B101218807DD
:1057E00000F02BF80E480078012801D0FEF75CFF8E
:1057F0000C480078012803D00B480078012804D118
:105800000A480088401C0949088009480088002887
:1058100004DD07480088401E0549088010BD0000CF
:105820006407002068070020690700206607002041
:105830006A070020CA4302827047CA430282704747
:1058400021B1028842F00102028004E002884FF692
:10585000FE731A400280704710B5044668488442BF
:1058600008D10121C014FFF7C1F90021E014FFF7AE
:10587000BDF9C4E0B4F1804F08D101210846FFF71B
:1058800095F900210120FFF791F9B8E05D488442C5
:1058900008D101210220FFF789F900210220FFF73A
:1058A00085F9ACE05848844208D101210420FFF773
:1058B0007DF900210420FFF779F9A0E053488442E4
:1058C00008D101210820FFF771F900210820FFF716
:1058D0006DF994E04E48844208D101211020FFF771
:1058E00065F900211020FFF761F988E049488442FA
:1058F00008D101212020FFF759F900212020FFF7CE
:1059000055F97CE04448844208D101214014FFF756
:105910006DF900216014FFF769F970E03F48844297
:1059200009D10121C804FFF761F900214FF40020DB
:10593000FFF75CF963E03A48844209D10121080588
:10594000FFF754F900214FF48010FFF74FF956E0AC
:105950003448844209D101214805FFF747F9002165
:105960004FF40010FFF742F949E02F48844208D174
:1059700001214020FFF71AF900214020FFF716F916
:105980003DE02A48844208D101218020FFF70EF92A
:1059900000218020FFF70AF931E02548844208D130
:1059A00001218015FFF702F90021A015FFF7FEF88D
:1059B00025E02048844209D101210804FFF716F9A7
:1059C00000214FF48030FFF711F918E01A488442A3
:1059D00009D101214804FFF709F900214FF40030F3
:1059E000FFF704F90BE01548844208D1012188042F
:1059F000FFF7FCF800214FF48020FFF7F7F810BD07
:105A0000002C01400004004000080040000C004051
:105A1000001000400014004000340140004C0140E0
:105A2000005001400054014000180040001C00409C
:105A30000020004000400140004401400048014077
:105A400030B50246002000230024158A05EA010330
:105A5000958905EA010413B10CB1012000E0002092
:105A600030BD10B51AB183890B43838104E083896B
:105A7000CC43A4B22340838110BD000000220288E1
:105A80001D4B98420ED01D4B98420BD0B0F1804F69
:105A900008D01B4B984205D01A4B984202D01A4BA3
:105AA000984204D14FF68F731A404B881A43174B14
:105AB000984207D0164B984204D04FF6FF431A4045
:105AC000CB881A4302808B8883850B8803850A4B19
:105AD00098420BD0094B984208D00E4B984205D003
:105AE0000D4B984202D00D4B984201D10B7A0386A0
:105AF0000123838270470000002C014000340140E4
:105B00000004004000080040000C0040001000406D
:105B100000140040004001400044014000480140A2
:105B20000FB410B50798A0F26C70079002A8FDF7AB
:105B300027FB10BC5DF814FB73B5044601A8FDF704
:105B4000A1FB0546686900F26C7068612C22294649
:105B50002046FDF765FB7CBD10B586B000F04CF823
:105B6000044601462348FFF7E7FF2249042248691B
:105B700001A9FEF701FE2D208DF808001D490969D5
:105B8000481C02220DF10901FEF7F6FD2D208DF8CB
:105B90000B0018490222C86803A9FEF7EDFD20207A
:105BA0008DF80E001349022288680DF10F01FEF7EF
:105BB000E3FD3A208DF811000E49022248680DF1EC
:105BC0001201FEF7D9FD3A208DF81400094902228E
:105BD00008680DF11501FEF7CFFD0A208DF81700BA
:105BE0000023009301AB102200210620FEF72BF8C2
:105BF00006B010BDD407002010B5FFF72FF910BD77
:105C000000B589B00DA00068089040F2DC700C4926
:105C100048610B2008611D20C86014208860322074
:105C20004860002008601C2210316846FDF7F8FA31
:105C300003480FC800F006F809B000BDEA010000F3
:105C4000D40700200FB410B588B01C220EA96846F6
:105C5000FDF7E6FA0AA80FC8FFF762FF044600F056
:105C600004F808B010BC5DF814FB10B50446FFF74B
:105C7000B1F92046FFF78AF9FFF7ACF910BD000033
:105C800000B585B0012144F20400FEF79FFF4FF4F8
:105C90000070ADF8100018208DF8130003208DF867
:105CA000120004A91748FEF71DF94FF48060ADF803
:105CB000100004208DF8130003208DF8120004A9B1
:105CC0001048FEF70FF94FF4E13000900020ADF8D6
:105CD0000400ADF80600ADF80800ADF80C000C208B
:105CE000ADF80A006946084800F062FA012240F265
:105CF0002551054800F038FA0121034800F0F1F978
:105D000005B000BD000801400038014010B540F268
:105D100025510C4800F0FEF990B140F22551094898
:105D200000F0D0F9002240F22551064800F01CFA9C
:105D3000FDF780FE012240F22551024800F014FADE
:105D400010BD00000038014070B504460E464021E9
:105D5000064800F0AEF9002505E0615D034800F05B
:105D600099F9681C85B2B542F7DB70BD0038014077
:105D70002DE9F04186B00446002554A00068049047
:105D8000002002904CF2503203A9514800F06CF907
:105D900018B1681E06B0BDE8F0814CF250320DF12A
:105DA0000D014B4800F060F910B14FF0FF30F1E702
:105DB0009DF80C00EF2875D19DF80D009DF811108D
:105DC000884202D04FF0FF30E4E700260CE002A842
:105DD00081194CF250323E4800F046F910B14FF0B4
:105DE000FF30D7E7701C86B2042EF0DB4CF2503245
:105DF0002146374800F038F910B14FF0FF30C9E7BD
:105E00004CF2503201A9324800F02EF910B14FF097
:105E1000FF30BFE74CF250320DF105012C4800F085
:105E200023F910B14FF0FF30B4E700272078074482
:105E30009DF8040007449DF8050007449DF80500FF
:105E40009DF8041000EB012085B2A81E85B2002643
:105E500010E0204881194CF250321D4800F004F93E
:105E600010B14FF0FF3095E71A48805D384487B293
:105E7000701C86B2AE42ECDB4CF2503205A91448DD
:105E800000F0F2F810B14FF0FF3083E79DF8148076
:105E90004CF2503205A90E4800F0E6F818B14FF068
:105EA000FF3077E70FE04FEA08604FEA10489DF8AF
:105EB000140040441FFA80F8474502D04FF0FF30ED
:105EC00068E7284666E74FF0FF3063E7EF01000020
:105ED00000440040000800202DE9F04704460D462C
:105EE0001646EF21344800F0D5F80121324800F081
:105EF000D1F8FF21304800F0CDF8FF212E4800F006
:105F0000C9F8FF212C4800F0C5F8FF212A4800F00D
:105F1000C1F84FF000082146274800F0BBF8A04424
:105F200005F102094FEAE97009EB1060C0F307219F
:105F3000214800F0AFF8A81CC11700EB116108EB75
:105F400021284FEAE97009EB10600012A9EB00204C
:105F5000C1B2194800F09EF8A81CC11700EB1161EE
:105F60000912A0EB012141441FFA81F8002709E042
:105F7000F15D114800F08EF8F05D40441FFA80F8A2
:105F8000781C87B2AF42F3DBC1464FEAE87008EBFA
:105F90001060C0F30721084800F07CF84FEAE87071
:105FA00008EB10600012A8EB0020C1B2024800F01C
:105FB00071F8BDE8F08700000044004000B585B0EE
:105FC00001212420FEF702FE01214804FEF7DEFD38
:105FD0000420ADF8100018208DF8130003208DF870
:105FE000120004A91D48FDF77DFF0820ADF8100040
:105FF00004208DF8130003208DF8120004A917481F
:10600000FDF770FF4FF40040ADF8100003208DF84D
:10601000120010208DF8130004A91148FDF762FF4B
:106020004FF400410E48FDF7F0FF4FF4614000903F
:106030000020ADF80400ADF80600ADF80800ADF89A
:106040000C000C20ADF80A006946064800F0B0F8D4
:106050000121044800F045F805B000BD00080140EA
:10606000001401400044004070B504460D46164639
:106070000AE02021204600F040F828B1204600F038
:1060800003F92870002070BD3000A6F10106F0D1A0
:106090001920F8E770B504460D4600BF8021204660
:1060A00000F02BF80028F9D02946204600F0F1F83E
:1060B00070BD01F40072B2F5007F00D100BFCA4389
:1060C0000280704710B500220023A1F510646A3CDD
:1060D00000D100BF0A1201249440A3B2DC43048023
:1060E00010BD21B1828942F40052828104E082898C
:1060F0004DF6FF731A408281704702460020B1F5C9
:10610000007F00D100BF13880B4201D0012000E0C6
:106110000020704770B502460023002400250020AF
:10612000A1F510666A3E00D100BFC1F3421501F02F
:106130001F04012606FA04F4012D02D19689344089
:1061400006E0022D02D1168A344001E0968A3440DE
:106150000B12012606FA03F31688334014B10BB173
:10616000012000E0002070BDF0B5002400250026CD
:106170000023A1F510676A3F00D100BF0346C1F3B9
:10618000421401F01F05012707FA05F6012C01D181
:106190000C3304E0022C01D1103300E014331AB1A7
:1061A0001F6837431F6002E01F68B7431F60F0BDE0
:1061B0002DE9F04786B004460D460026002700BFB3
:1061C000B146B246A88900B100BFA246268A4CF665
:1061D000FF700640E88806432682A6894EF6F31033
:1061E0000640A88829890843698908430643A6818F
:1061F000A68A4FF6FF400640A8890643A68201A85A
:10620000FEF714FD54461F48824501D1049F00E06B
:10621000039FA08910F4004F08D007EBC70000EBE4
:10622000071029684900B0FBF1F807E007EBC70049
:1062300000EB071029688900B0FBF1F86420B8FB77
:10624000F0F006013009642101FB1089A08910F4E7
:10625000004F09D0322101EBC9006421B0FBF1F0FD
:1062600000F00700064308E0322101EB0910642129
:10627000B0FBF1F000F00F000643268106B0BDE848
:10628000F08700000038014001468888C0F308000C
:106290007047C1F308028280704700BFFEE72DE916
:1062A000F84F04460D4616461F46DDE90A890020D0
:1062B0000090B24631E04AF0B000FFF7EBF8102151
:1062C00041EA2510FFF7E6F805F00F00FFF7E2F8C6
:1062D000AB461CE0B9F1010F0AD1ABEB0500AAEB0C
:1062E000060100EB0110205CC043C0B2009007E043
:1062F000ABEB0500AAEB060100EB0110205C00905F
:106300000098FFF707F90BF1010000F0FF0BBB4508
:10631000E0DD0AF1010000F0FF0AC245CBDDBDE877
:10632000F88F2DE9FE4F04460D4616461F46DDE95F
:106330000C8900200090B2464AE04AF0B000FFF716
:10634000A9F8102141EA2510FFF7A4F805F00F0085
:10635000FFF7A0F8AB4635E000200090ABEB05005E
:10636000AAEB0602791B491C02FB0100205C02908B
:106370000020019015E0029810F0010F03D0009862
:1063800040F0010000900298401002900198072808
:1063900003DA00984006000E00900198401CC0B23D
:1063A000019001980828E6DBB9F1010F03D10098AC
:1063B000C043C0B200900098FFF7ACF80BF10100A9
:1063C00000F0FF0BBB45C7DD0AF1010000F0FF0A3A
:1063D000C245B2DDBDE8FE8F2DE9F04704460D460B
:1063E00016461F46DDF820804FF00009102118489E
:1063F000FDF70BFEB8F1010F03D1822000F00AFC7B
:1064000005E0B8F1020F02D1852000F003FCC4F3CF
:10641000871000F0FFFBA10041EA1521C8B200F08F
:10642000F9FBE8B200F0F6FB4FF0000905E017F8C1
:10643000090000F0EFFB09F10109B145F7D3102184
:106440000348FDF7E4FD0B2000F076F8BDE8F08787
:10645000000801402DE9F84304460D4616461F4644
:10646000DDF82080C5F50470B04208D33B463246C3
:1064700029462046CDF80080FFF7AEFF2AE0C5F59B
:1064800004723B4629462046CDF80080FFF7A4FF62
:10649000C5F504700744641CC5F50470361A0DE098
:1064A0003B464FF4047200212046CDF80080FFF7F0
:1064B00093FF07F50477641CA6F50476B6F5047F10
:1064C000EED23EB13B46324600212046CDF8008058
:1064D000FFF782FFBDE8F88302E008C8121F08C179
:1064E000002AFAD170477047002001E001C1121F55
:1064F000002AFBD17047000000B585B06846FEF762
:1065000095FB6FF00400FFF7ADF80020FFF7F1F8FE
:1065100007490198B0FBF1F0064908704FF4FA51B1
:106520000198B0FBF1F00349891C088005B000BD5B
:1065300000127A000000002070B50446114800885F
:1065400000FB04F5B5F1807F01D36FF07F4528464D
:10655000FFF7E2F80020FFF799F80120FFF796F81F
:1065600000BF1020FFF7ADF80649891C08700846E7
:1065700000780128F5D1C01EFFF788F80020FFF74A
:1065800085F870BD0200002010B5002821D0114B05
:10659000001F0022196803E0814203D80A464968B7
:1065A0000029F9D152B11368841A9C4204D10068C1
:1065B00018441060104602E0506000E0186039B1E5
:1065C00002680B1A934203D10B681A4402604968AF
:1065D000416010BDBC070020F0B5ADF23C4D002479
:1065E0004FF4FE7190A8FCF734FE1422E0498BA80A
:1065F000FCF716FE4FF4047107A8FCF72AFE0025ED
:106600000127FFF779FFFEF7F5F8FEF767F8FCF7CB
:10661000E9FEFCF7BBFEFDF73FFDFDF7C9FFFDF707
:106620000FFDFEF7BFF8FCF75FFFFFF729FBFFF751
:10663000C5FCFFF7A5F8FDF75DFBFEF70CF9FEF7CB
:1066400019F80020CB4908704FF4FA710120FCF7CB
:106650002DFFFCF761FF00230093C7A3082204214C
:106660000020FDF7F0FA00230093C6A30C220221BC
:106670000846FDF7E8FA00BF48E0FEF777FD05465B
:10668000C4480078012841D10020C2490870294639
:10669000C148FFF7FFFC062D32D2DFE805F03128B4
:1066A0001F160D03002700230093BCA31022002116
:1066B0000420FDF7C8FA24E000230093BCA31022B5
:1066C00000210420FDF7BFFA1BE000230093BDA3C7
:1066D000102200210420FDF7B6FA12E000230093F7
:1066E000BDA3102200210420FDF7ADFA09E000232C
:1066F0000093BEA3102200210420FDF7A4FA00E0BD
:1067000000BF00BF4FF47A70FFF716FF002FB4D11F
:10671000012300938BAB0A2200210846FFF79AFE63
:1067200007AB0A2200210846FEF7AEFC0A2207A9A1
:106730008BA8FCF79AFD60B90F21B1A0FFF704FB0D
:1067400000230093B2A3102200210420FDF77BFA5E
:106750000BE01221B3A0FFF7F7FA00230093B6A3D2
:10676000102200210420FDF76EFA4FF47A70FFF733
:10677000E3FE002603E0002007A98855761C0A2EB8
:10678000F9D30A2300938BAB0022A221AF48FDF777
:106790006FFE0A23009307AB0022A321AB48FDF74D
:1067A000C5FD0A2207A98BA8FCF75FFD60B90C2183
:1067B000A7A0FFF7C9FA00230093A8A31022002185
:1067C0000420FDF740FA0BE00F21A9A0FFF7BCFA67
:1067D00000230093AAA3102200210420FDF733FA1E
:1067E0004FF47A70FFF7A8FE002603E0002007A907
:1067F0008855761C0A2EF9D30A2300938BAB6422AA
:10680000A4219248FDF734FE0A23009307AB6422CB
:10681000A5218E48FDF78AFD0A2207A98BA8FCF75F
:1068200024FD60B90C219BA0FFF78EFA0023009392
:106830009BA3102200210420FDF705FA0BE00F2195
:106840009CA0FFF781FA002300939EA31022002151
:106850000420FDF7F8F94FF47A70FFF76DFEFDF7AD
:10686000F1FE0446002C3BD1002603E0002007A9DE
:106870008855761C0A2EF9D30A2300938BAB32225B
:10688000A0219548FDF7F4FD0A23009307AB3222BF
:10689000A1219148FDF74AFD0A2207A98BA8FCF720
:1068A000E4FC60B90B218DA0FFF74EFA00230093A2
:1068B0008DA3102200210420FDF7C5F90BE00E2165
:1068C0008EA0FFF741FA0023009390A3102200212D
:1068D0000420FDF7B8F94FF47A70FFF72DFE0FE0B2
:1068E00012218FA0FFF730FA0023009391A310220A
:1068F00000210420FDF7A7F94FF47A70FFF71CFE82
:10690000FCF7C8FE002300938FA31022002104206F
:10691000FDF799F90DE0052202A98E480068FDF700
:106920002BFF0023009302AB05220B210420FDF76F
:106930008AF9884800680A28EDD3FEF7D7FAFEF7EF
:1069400025FA012084490870FCF702FE0EE0FEF7EC
:106950000DFC05460F480078012807D100200D499D
:106960000870022D02D1012002490870EFE70000F3
:106970004C6C000864070020B9E3D6DDC1A2C7EF64
:1069800000000000D3B2BCFEB2E2CAD4B3CCD0F255
:10699000000000006807002000380140202020C8C7
:1069A000B7B6A8BCFCD5FDB3A32020200000000092
:1069B000202020C8A1CFFBBCFCD5FDB3A320202004
:1069C00000000000202020CFC2B7ADBCFCD5FDB335
:1069D000A320202000000000202020BFAABBFABC7A
:1069E000FCD5FDB3A320202000000000202020C9FA
:1069F000CFB7ADBCFCD5FDB3A32020200000000024
:106A000041543435444231363144204F4B0A000062
:106A1000202041543435444231363144204F4B20FC
:106A20000000000041543435444231363144204E98
:106A30004F204F4B0A000000415434354442313658
:106A40003144204E4F204F4B0000000000580040C2
:106A5000454550524F4D31204F4B0A0020202045D4
:106A60004550524F4D31204F4B2020200000000058
:106A7000454550524F4D31204E4F204F4B0A00009C
:106A80002020454550524F4D31204E4F204F4B2036
:106A900000000000454550524F4D32204F4B0A0038
:106AA000202020454550524F4D32204F4B20202072
:106AB00000000000454550524F4D32204E4F204FB0
:106AC0004B0A00002020454550524F4D32204E4F7A
:106AD000204F4B2000000000005400404943434138
:106AE0005244204F4B0A00002020202049434341BC
:106AF0005244204F4B2020200000000049434341D6
:106B00005244204E4F204F4B0A00000020204943A2
:106B100043415244204E4F204F4B202000000000A4
:106B2000494343415244204E4F20494E534552540D
:106B30000A000000494343415244204E4F20494E31
:106B40005345525400000000C2F6B3E5BCC6CAFD6E
:106B5000C6F73A00A00700206E070020F0B5002617
:106B6000154F0B3020F00701144A0FE003688B42E9
:106B70000BD38B4205D95D1A44684318C3E900540E
:106B800000E04368136002C004E0021D10680028A2
:106B9000ECD1304600280DD1386850B9074A084872
:106BA0001060084A121A22F0070244C0012038601F
:106BB000DAE70020F0BD0000C0070020BC0700207D
:106BC00084080020802800202DE9FC4704460D465B
:106BD00016461F46DDE90A89202C0EDB7E2C0CDCD4
:106BE000A4F120010A4ACDE9008952F821003B4670
:106BF00032462946FFF795FB08E00549CDE90089B3
:106C00003B46324608682946FFF78BFBBDE8FC8708
:106C1000E805002010B5044600BF02210A48FEF72F
:106C200077FA0028F9D021460748FEF77DFA00BF21
:106C300001210548FEF76CFA0028F9D00248FEF75A
:106C400070FAC0B210BD0000003001400102030420
:106C50000506070809101112131415161718192024
:106C60001F1C1F1E1F1E1F1F1E1F1E1F1F1D1F1E3E
:106C70001F1E1F1F1E1F1E1F986C000800000020F3
:106C8000C4070000343300085C710008C40700200A
:106C9000BC400000E8640008811008070F19311992
:106CA0000F0733F0F019051008203F3F22223F1D47
:106CB000100810F0F01010F0E010080F1F30202026
:106CC00030182808C0E03010103060203D20301F00
:106CD0000F203C30E0C0304C27303830BB307010D3
:106CE0004119404D212131194013E0F078083F3F10
:106CF0000202023F3F7021295241693249114AE0A4
:106D00007F290D3C03073C50113B80F060792E2910
:106D1000709E3F3F1C0E1C5029109A071038081F08
:106D20003F2020203F1F50295139E07B3E1C6E99A7
:106D3000203D703CFCE4203B233F203940100818E4
:106D40003C26222339184B607040111D38303F3FDC
:106D5000E069B0196B390569606910280880C06066
:106D60003060C0800B4A03201C70C07020100830B7
:106D70003C0F070F3C30200830F0C080C0F0307F5F
:106D80003C3E03033E3C501E3830212326F03C702D
:106D9000F090E0112605050507032960190429A0D4
:106DA0002D040603019C39704808030704040406F7
:106DB00002801330202D010306248469304B030721
:106DC000416920116F021F3F2230186F39401904AA
:106DD0001127E4F61212FEFC19601B020430191F81
:106DE00029643154043737593169121D0C0E0202DF
:106DF00031193019732A041E1C80C070D0291299D1
:106E0000301E070706030650194B2AE005195C2AB5
:106E10000460395C190439C069A019D069206D0279
:106E2000FEFE12E029A019202D12FEFE02205A06B5
:106E3000A0398E100802070504040602100820304D
:106E40009090D070204704041F3F0404193219F0B9
:106E50002B070784390E1A1004390C29052808C09D
:106E6000E0301030E0C00B2A01052EE0F030E030B9
:106E7000804B0603D0191D192379301008E2F21255
:106E80001216FCF81E06060405072010083070D004
:106E90009010303078080F1F3023301F0F501145ED
:106EA00008183F3F19CE19731948162123263C189C
:106EB0002D70F0901030180810302222223F1DB0A3
:106EC00049F0380803070D193F3F013229D31B3E13
:106ED0003E207B23212038080F1F3222220301C0CD
:106EE0002910300830302021233E3C43F0F04B1D68
:106EF0003F5069202A1C402B3F1F80499011551C90
:106F00003F3F1C43B0B02370789378702C041F1F50
:106F100003112C40F0F003294015E2E233191E6002
:106F200030101C1C50130C0C150103060C1D306096
:106F3000C0807D113808011B3E273D1B02701904DB
:106F400019F0994D51450F1F30201CC0E0301F2112
:106F50003D20301F0FDF398F10090105070303079C
:106F600005011F40C08080C040113E01070701019C
:106F70003129AEA149594A01010114198E5189A044
:106F80006119B351BB6060103B107010292E2A1894
:106F9000991B80C0E4213A0401190F390119271DFA
:106FA000180C0603704A1052400818382023273C5A
:106FB000183BB0B0DE1C101313D119FC2CD0D0D06C
:106FC000733C3F3F20F01CF0F0104F2C1C0E073E8E
:106FD000412C80C0E0C23D20203F3F804C10F0F0AB
:106FE000573978F149872989CA401F4D02021F3D50
:106FF0006119733919494F2971413F20203D1F0202
:10700000025F2AE00F1C604060049113C407142043
:10701000E8031B20F8041308041B2018041A280492
:107020001A38041A48041A58041A68041A78041AF8
:1070300088041A98041AA8041AB8042AC82419380B
:107040001A58041A68041A78041A88041A98041A38
:10705000A8041AB8041AC8042AD804192C1AE80477
:107060001AF8041B08056819041A28041A38041AA7
:1070700008971A18041A28041A38041A48041A58C7
:10708000041A68041A78041A88041A98041AA804BE
:107090001AB8041AC8041AD8041AE8041AF8041B07
:1070A00008014019041A28041A38041A48041A5806
:1070B000041A68041A78041A88042A9818196C1A91
:1070C00058041A68041A78041A88041A98041AA82A
:1070D0001C1AB8041AC8041AD8041AE8041AF804C6
:1070E0001B08025819041A28041A38041A48041AEA
:1070F00058041A68041A78041A88041A98041AA8FA
:10710000041AB8041AC8041AD8041AE8041AF804AD
:107110001A08F81A18041A28041A38041AA86C1A3B
:10712000B8041AC8041AD804C1300DB3B5D4D8BBFA
:10713000FA56312E372E311D2029212301680826C9
:107140002824FFFF27FF016A2909B12D010203044A
:0C71500004B00906070809020406080044
:04000005080031318D
:00000001FF
